:020000042000DA
:1000000000980020A5040020AD040020C5040020B5
:1000100000000000000000000000000000000000E0
:10002000000000000000000000000000DD040020CF
:100030000000000000000000F5040020F70400208C
:1000400095280020732900200D310300612900202C
:10005000F72800208D3103008529002093290020F6
:10006000F904002015200020D3290020AD31030021
:10007000578102005F230020F9040020F9040020CA
:10008000F9040020F9040020F9040020CD1F00200D
:10009000D11F0020D51F0020D91F0020DD1F002008
:020000042000DA
:1001600032000000CD0600202F2500202B2F00207C
:10017000000000000000000063800200BD8002005B
:10018000C10A0020FB8002001981020035810200B3
:100190005D810200D92600203D0B0020AD0A002021
:1001A000B70A002000000000000000003F0000002F
:1001B000F48B002000040000740B080048010000CC
:1001C0006807080000040000C80C080020050000B3
:1001D000000000002000000048000000580000005F
:1001E0006800000004010000160100002801000062
:1001F0002E010000202A00008E2E000001000000C9
:1002000088130000B9250020E9600200FD93020078
:100210006113002019280300A574020015060020B0
:1002200003000000D5200200852F002004000000FC
:10023000D74902000F4902001D0C00206391020003
:10024000B7910200BF910200078202007182020092
:10025000F8490020AD83020093840200418502002A
:1002600015860200378602005F860200758602004E
:10027000F9870200258902005D8A0200D38C020002
:10028000098D02000F900200438D0200278E0200AC
:10029000F98E0200478F0200230A0020D58F02004A
:1002A00049510200775102002F5202001000000055
:1002B00020030000803E000000000000000000005D
:020000042000DA
:1002C000504600030003983A6400F401B80B000C98
:1002D000B80B120030003000CD009A01120024004B
:1002E00030006400B0001800280012001200D0078F
:1002F0000000FFFF00000000000000000000000000
:100300001F000002444131343538302D30310000B7
:1003100000000000000000000000000000000000DD
:0403200000000000D9
:020000042000DA
:10034000FFFF010000C201000000000000000000EB
:100350000000F40101000116000903030A18110747
:100360002F2A93A6BDD84152AC0B10992EC6FEED94
:10037000000000000000000000000000000000007D
:10038000000000000000000000000000000000006D
:100390000000000000000000000048616F2D435580
:1003A0005354310000000000000000000000000075
:1003B000000000000000000000000000000000003D
:1003C000000000000000000000000000000000002D
:1003D0000000000000000000010101010101D00740
:0403E000064064323D
:020000042000DA
:100440000348854603F032FF00480047C7200200FA
:10045000009800200F4906200880FF200E49013037
:1004600008600E4988683E2290432E308860002242
:10047000052000070280018A0F231B021943018215
:1004800001210748C90404C1401E0028FBDA62B6F6
:10049000704700000034005080E100E0003300505D
:1004A000FF0B00001548804715480047042071469F
:1004B000084203D0EFF3098012490847EFF30880A0
:1004C0001049084704207146084203D0EFF3098021
:1004D0000D490847EFF308800B490847042071468F
:1004E000084203D0EFF3098008490847EFF308807A
:1004F00006490847FEE7FEE7FEE700005504002036
:10050000410400207905002011050020210E002063
:1005100005221207518A8023194351821349036827
:100520000B6043684B6083688B60C368CB60036972
:100530000B6143694B6183698B61C369CB6108625D
:100540000B48836A4B62C36A8B62036BCB62C36BDB
:100550000B63436B4B63806B8863064908200880FC
:10056000908A800601D500BE7047FEE7001808009B
:1005700000ED00E000330050052109070A8A04233A
:100580001A430A820A8A02231A430A820A894023EA
:100590001A430A811B4B01221A601B4B08221A8046
:1005A0004A8A80231A434A82184A036813614368BF
:1005B000536183689361C368D361036913624369BC
:1005C000536283699362C369D36210631048836A7C
:1005D0005363C36A9363036BD363C36B0B4A4032A9
:1005E0001360436B5360806B9060888A800608D5E7
:1005F00000BE488A012280088000D203104348824E
:100600007047FEE780E200E0003300504018080029
:1006100000ED00E070B516460C460546012802D0F4
:100620000C2D26D10DE006222149224803F050FE70
:1006300000281ED006221F49304603F04FFE062038
:1006400012E01D4D29680878C00610D520782028B2
:1006500003D200202070042070BD0A7E30463A315B
:1006600003F03CFE2868007E2070002070BD012051
:1006700070BD32462146284603F036FE70BD70B587
:100680000E480F49C405228880252A4322800D4A3E
:1006900053891B0701D4401EFAD20B4A0120106077
:1006A0000622044803F01AFE2088A843208070BD6B
:1006B000383E030000800020C0060800A08601002C
:1006C000D47F0400200000500080004008B500F0F6
:1006D00042FA052400252407C826684F09E00421B2
:1006E0006846009503F006FE002817D000F0A7F931
:1006F00014E02089000611D501208007006B00045A
:100700000CD403F0FDFDC00708D1042003F0FEFD6A
:10071000009003F001FE00980028E0D172B602F0CC
:10072000ABF9042806D002280BD0032809D00128F1
:1007300016D016E052480078012801D0032000E0CE
:10074000022000F011F8A08A800602D54D49082049
:10075000088030BF4C48016904229143016100E0E8
:1007600030BF62B63E80C4E7F8B50446684605254A
:1007700004702D07288A0421084328824348444FE7
:10078000C0690126012811D9032C18D103F0CAFD34
:10079000002814D003F0CCFD002810D0032003F073
:1007A000CDFD00280BD00220387009E0032C06D1C3
:1007B000032003F0C3FD002801D03E7000E00224B6
:1007C00068460470204600F023F800203149022CCE
:1007D000087001D0032C1AD12F494A88FF23013316
:1007E0009A434A806A882D4B1A804A8832434A804D
:1007F00000900099491C00911429FADB6989890845
:100800008900491C698169894906FCD56880F8BD61
:1008100010B5022801D0032828D11B490B690422F6
:1008200013430B61052109074B8A2024A3434B8204
:100830000B8A022423430B8210230228488A16D0F5
:10084000104348827F220888920180242043088038
:100850000020401CC0B20A28FBD3488A18434882B3
:100860000F48521E42610888A043088010BD104303
:100870004882488A9843488210BD000000310050E9
:10088000540208000033005000ED00E0E0010020B9
:10089000C4060800758000202000005076800020EB
:1008A000008000407047000026480178002902D0EF
:1008B0008021417070472449002008702349C87086
:1008C000704720480178002902D08121417070478B
:1008D0001D49012008701D49C870704719480178EA
:1008E000002902D082214170704700BE16490220C3
:1008F000087016490120C8707047002804D00128EC
:1009000003D0022802D1E9E7CEE7DAE770470D48C5
:10091000C07870470020EFF31081012282F3108825
:10092000052212071289120605D4094802890123FB
:100930001A4302811846002900D0012181F3108852
:10094000704700000780002054020800C606080017
:100950000033005070B50520000701893022914313
:10096000018101898022114301810189890889005F
:10097000491C01810189082319430181AF490C8871
:1009800014430C80448A9C434482058940242543B7
:100990000581058A0426B5430582858AAD07FCD505
:1009A000A74E002575600E8801252E430E804D89C7
:1009B000AE05A44D0E8801D52E4300E0AE430E8057
:1009C0000D887826B54328350D800D8806263543D9
:1009D0000D80458A1D4345820B8893430B80028915
:1009E000A24302814889800503D5944905206031DE
:1009F0008880012080070168821591430160924838
:100A000001683F2252029143421489180160016833
:100A100002031143016070BD10B58C4803F094FCD3
:100A200010BD70B5854C6088C006050F03F092FCC0
:100A300061881E2291436A001143618070BD70B5C8
:100A400083490120C863C86B0028FCD101208007BE
:100A5000C169804800220368994200D20260784C44
:100A6000012663787C4D002B04D06270016003F096
:100A700077FC11E0026819238A1ADB019A4214D329
:100A8000016003F06DFC2988884201D9411A00E019
:100A9000091A89B2182908D32880012003F066FCBE
:100AA00003F06AFC002800D1667070BD08B503F041
:100AB00069FC009008BD08B503F06AFC009008BD11
:100AC00008B5664901204A695206D20F13D04A6917
:100AD0009206D20F0FD000220A610092FF225F32ED
:100AE000009B5B1C00939342FAD34969C907C90F65
:100AF00002D003F053FC002008BD1FB5684601F08A
:100B00008CFB009803F050FC1FBD554B002019785A
:100B100000290DD04E490122CA63CA6B002AFCD1BC
:100B200001218907C9694F4A1268914201D2012007
:100B300070470021197070470020704710B54A496E
:100B400000200860FFF768FF01208007016B490063
:100B50004908016310BDF8B501204149434C0870B4
:100B6000C82525800026668041480827478003F075
:100B700021FC01F037F90D207901800103F020FC00
:100B8000FFF77DFD03F018FA012003F00DFC01F0E2
:100B900031FCFFF7DFFE042000F048F8072000F0EA
:100BA00045F80A2000F042F8062000F03FF80B203C
:100BB00000F03CF8012000F039F8022000F036F88F
:100BC000002000F033F82B48006803F0FFFB00F032
:100BD000A8F800F0E1FF00F0D0F901F086F8A005D8
:100BE0000168821511430160FFF787FFFFF75CFE84
:100BF00002F0E0FD03F088FAFFF7A0FF05200007F0
:100C0000C6820E494888E0229043A03048800120E7
:100C100003F0E2FB258016484780F8BD164910B561
:100C2000884200D000BE03F0DDFB10BDC106C90E36
:100C300001208840114908607047000020000050E2
:100C40000C8000200010000000020040E2040000C0
:100C5000C00000407C040800780408000010005028
:100C6000068000200C5000208C030800003100504A
:100C700000330050049000201111111180E200E0B7
:100C8000FEB5784D019117461E4600240090294676
:100C900003F0AEFB050005D033463A4601990098B3
:100CA000A84704462046FEBDFFB581B01F460E464C
:100CB0004D780C78002003F0A1FB042824D00028F4
:100CC0001DD121E06848816E2E2060430918888874
:100CD0000207120F130003F097FB070505050F0528
:100CE0000F050F008204920E062A05D27278012A9F
:100CF00012D0072210438880641C6407640F2846C2
:100D00006D1EEDB20028DDD13B463146039A0198B5
:100D100003F080FB05B0F0BD204603F081FB00200E
:100D2000F8E770B551480378021D0021504D07E0E7
:100D3000CC00165D002E01D12418A560491CC9B253
:100D40009942F5D370BD028908894A49101A80B2C8
:100D5000884201D90120704700207047FFB586788E
:100D60000446300281B00E30009003F047FB0028AB
:100D700001D0FF2652E00021442003F057FB3E4FF4
:100D8000B5007851442103F057FB0121009803F08E
:100D900059FB79590298888079596088C8807859B8
:100DA00022792030417CD20749084900D20F1143F3
:100DB000417478590622A11D3B3003F08FFA78590F
:100DC000617940304170785906223430039903F03C
:100DD00085FA795904982031887602980D281DD01B
:100DE000264810230088009A81B2254803F030FB82
:100DF0000546608828806079687228460622A11D11
:100E00000A3003F06BFAA0896880E089A880208A04
:100E1000E880A07C2872284603F020FB304679E762
:100E200081692039897F082905D2114A8900103249
:100E3000515881617047FEE70D4A12493032002057
:100E400008CA401C08C11028FADB01200E49C00660
:100E500008600E49CA691202120ACA610A49803939
:100E60000860704784430300D802080004060800A5
:100E70002C4A002030750000540508006001002055
:100E8000013800001084004080E100E000ED00E047
:100E900070B516460D46104603F0B0FA00286AD029
:100EA000340A304603F0AAFA012812D0A87A1E2884
:100EB00011D029460A310E2846D019DC801E0300C5
:100EC00003F0A2FA0B255929592D59315939593EA8
:100ED0005900022070BD3146314803F0C5FA0021A7
:100EE000204603F0C7FA0221304603F0ABFA42E095
:100EF00018283DD006DC102819D012282CD016282E
:100F000039D131E0522823D0D22834D128E02046EC
:100F100003F0B6FA2FE0204603F0B8FA2BE02046A3
:100F200003F0BAFA27E0204603F0BCFA23E020469B
:100F300003F0BEFA1FE01B4A2046126890471AE0F1
:100F4000204603F0BBFA16E0204603F0BDFA12E09B
:100F5000204603F0BFFA0EE0204603F0C1FA0AE093
:100F6000204603F0C3FA06E0204603F0C5FA02E08B
:100F7000204603F0C7FA002070BD70B50A48037818
:100F8000021D0021094D07E0CC00165D0A2E01D19B
:100F90002418A560491CC9B29942F5D370BD000060
:100FA00001280000104A002004060800FC4A002026
:100FB000F7B507461646019803F0AAFA0546C48815
:100FC000384603F0ABFA401E844200D2204684B279
:100FD00022460B21384603F0A7FA0746002E05D01B
:100FE00033460A21019A03F0A5FAFEBD29467C800A
:100FF00022460831381D03F071F9384603F0A0FA93
:10100000FEBDF8B50646002000900C464A88014611
:101010006B46304603F09AFA020001D061881EE068
:10102000608803F099FA002817D005890120EAB2F8
:10103000002103F097FA0C4B0CCB104019400843E9
:101040000BD032020223294608480A3203F000FA84
:101050006188018003F002FA04E0618800223046D2
:10106000FFF7A6FF0020F8BD28800020022800001E
:10107000F8B50D46064681002B48EA884458521CB4
:1010800020686B89018F294F5143009101464031FF
:101090004A89C989511A8AB2991A89B2B94214D2B5
:1010A0009A4212D0294603F063FA2D89204900980C
:1010B00003F064FA2818801C4034E0823002401C9F
:1010C00080B2042103F0BEF9F8BD2821304603F0B8
:1010D0005BFAF8BDF8B50546870013480C46C059C1
:1010E000C9880068114E024640325389D2899A1A43
:1010F00092B28B1A9BB2B34211D20B4E8A420ED0DF
:1011000003F048FAF05905225F30611C03F0E6F85D
:101110002802401C80B2052103F094F9F8BD282173
:10112000284603F031FAF8BD4C030800FF7F0000A9
:101130001027000070B50446007800250D2801D066
:101140000A2200E002225A494B7A002B06D00D28D1
:1011500004D0637C032B01D0432551E0097A8A43F4
:1011600039D10D2809D00E2802D00F2803D134E040
:10117000607C032804D3402542E0607C0328FAD831
:10118000A07C0428F7D20A2908D0607C012822D04C
:10119000022820D06078032809D811E003F000FA73
:1011A000012806D16078032803D0002801D0492502
:1011B00026E003F0F5F9002802D160780228F6D87D
:1011C0003020035D22462046E17C3132143000F0AD
:1011D00019F8054614E0422512E003F0E1F9012870
:1011E00007D16078052804D1A01D03F0DFF900289D
:1011F000DDD003F0D5F9002802D160780228D6D8D6
:10120000284670BDFFB5002086B001216A461170E6
:10121000044605910021002C06D0089D099A1F2341
:101220009A4234D9402032E01C23069D079AF7E702
:101230006B185E78330003F0E7F81D2610101010CD
:1012400010101010102626262626262626262626AC
:1012500026261010101010102600059B03E06F4684
:10126000FF5CB74204D05B1E5BB2002BF7DA03E0F1
:10127000002B01DB4A2006E0059B6F46FE54059BD0
:101280005B1CDBB205936B5C491C5918C9B29142D7
:1012900001D20028CCD0914202D04A200AB0F0BD41
:1012A000641CE4B2022CF9D20028B3D0F6E70000A7
:1012B0009805080070B5EFF31085012080F31088C1
:1012C0002C4803F079F90446002D1DD0012080F34D
:1012D0001088002C2DD020464038C08F26498842E7
:1012E00027D16189208903F06DF905000ED02146D0
:1012F0001031A38962892089A847002806D00128D7
:1013000017D0022815D105E00020E0E7204603F0C1
:101310005FF90EE0EFF31085012080F31088154887
:1013200021460C3003F05AF9002D0CD0012080F337
:101330001088EFF31084012080F310880D480068B6
:10134000002802D004E00020F1E7012003F04CF96E
:10135000002C03D0012080F3108870BD0020FAE734
:1013600010B5BC21054803F067F80549012003F0DA
:1013700041F910BDA80508003883000004060800E4
:10138000B512002000B502790021130003F03CF8EB
:101390000C34070735352035353535352734427956
:1013A000042A27D8C279530707D05207520F012ABF
:1013B00003D0042A01D0052A1CD18279002A01D049
:1013C000012A17D1007AC01F0A2816D3062114E07B
:1013D0004279521E0A2A10D3082242710DE0407948
:1013E00042070AD04007400F012806D0042804D045
:1013F000052802D00A2100E00721084600BDF3B508
:1014000081B001980C460102CA1D022332480E31F8
:1014100003F01EF804700199054602272F488E003C
:10142000002C06D0042C16D0062C10D0072C3FD14F
:1014300008E0815905224968897C1140697080590A
:10144000C77335E0084603F0DBF8687030E0805978
:101450000F21C1732CE0044680594068417C01296A
:1014600002D1007E01280FD0019803F0CFF80121AE
:101470000028A0590BD04268D07D00281CD001283C
:101480001AD004280DD00FE0002068700DE04068ED
:10149000C27D022A01D0042A06D1007C02280BD189
:1014A00002E0107C022807D06F70A1590320C87396
:1014B000284602F0D3FFFEBD6970F6E701460A78C0
:1014C0000120042A01D90020704749780029FBD067
:1014D0000129F8D170470000021C0000280508000F
:1014E000FFB589B00D4600206946059008720B983B
:1014F000000A009003F08AF807460B9802F07EFF7E
:1015000000287DD00B982978000A8400784E0129A4
:1015100063D0042904D0062948D0072968D125E0E2
:101520003059C17B032901D0042961D16978002990
:101530001AD040681022A91C02F0D0FE002F06D05D
:101540003159C87B032807D0042808D050E030590F
:10155000C07B032803D04BE00B20C87348E0052173
:10156000009803F059F843E00120B6E03059C07B01
:101570000E283DD1009803F043F8002103E02A181B
:10158000401C9170C0B21028F9D3688A694608835C
:10159000294606A808221431023002F09FFE06AB4D
:1015A000AA1C3946009803F03DF821E03059C07B71
:1015B0000F281DD1AA1C0A21009803F039F8002F2A
:1015C00004D03946009803F039F811E000231A4698
:1015D0003946009803F038F80AE0012F08D10B983B
:1015E00002F00CFF01281CD0002801D00220059039
:1015F0006846007A002811D002AA0521009800E070
:101600000CE003F015F86846027A60200243684651
:10161000027201233946009803F016F805980DB0C0
:10162000F0BD3059C07B0228E2D16878002851D043
:1016300002210B9802F006FF305907224068A91CCE
:10164000173002F04BFEE878002804D1305940688A
:10165000407C01283AD0009802F0FCFF002837D0E7
:10166000297A009802F0FCFF002833D0009802F09D
:10167000FDFF0121009802F0FFFF00282CD0305917
:101680004068417E00292BD0042929D0C17E027DEB
:101690001140C17630594068017F427D1140017789
:1016A0006846007A0028A7D1305902214268009884
:1016B000173202F0BDFF305941684031897B002963
:1016C00013D004210098FFF79AFE91E7022004E06E
:1016D000062002E0082000E00320694608728BE73C
:1016E0000021C17630594068D9E70B21C1737FE7EB
:1016F00028050800F8B50546FD49123080B2496E4C
:101700002A2250430C1804202071241D02F0BAFF35
:1017100000902046093004226946064602F0DEFDAC
:1017200002F0B0FF009004226946601C02F0D6FD72
:1017300002F0A8FF009004226946601D02F0CEFD71
:10174000EC4A2946964600204E22EB4BB4465143C4
:10175000420066469619727836781202324376460F
:101760003668871C76187F00FF18F253401C022849
:10177000EEDBE249A80008580822611C783002F02C
:10178000ADFD2802401C80B20D2102F05BFE0D2150
:10179000284602F07DFFF8BDF3B5044681B0042071
:1017A00002F07CFF0246D549A0000858002A25D047
:1017B0000299082270300B3102F090FD0299204608
:1017C00013318C460022CB4B4E21CB4E4843550063
:1017D00061466F1879783F78090239431F683F18CE
:1017E000AD197953521C022AF1DB20460299FFF70A
:1017F00081FF2046029902F057FFFEBD6030C17B99
:10180000490704D50621204602F054FFFEBD2102FF
:10181000491C807B8DB2002807D07D2252012946C9
:10182000B74802F04DFF032100E00121284602F0F5
:1018300009FE0621204602F049FFFEBDFFB581B03A
:101840000398070A02F0DAFD0646102836D004DCB9
:10185000002E37D0082E04D130E0142E32D0152EB1
:101860000BD0A64CBD0060596030C07BC00607D5C8
:101870003D21384602F088FE24E0022005B0F0BD8C
:1018800002F02AFF01281DD1032E07D19C4803999D
:1018900002F0EAFD6059012160308173605918221D
:1018A0006030C17B1143C17360598030007C0028D7
:1018B00004D00721039802F0C5FDDEE738460299FF
:1018C000FFF76AFF0020D9E710B50C4602F00AFFC7
:1018D00021888A00894989580968002902D0894BE2
:1018E000C968995010BDF8B50E461046150A02F0A9
:1018F00085FDAC00814F002817D0142815D015287D
:1019000009D038596030C07BC00606D53D21284635
:1019100002F03AFE09E0022008E002F0DDFE0128B4
:1019200003D131462846FFF7A3FB00203959096847
:10193000002902D0734AC9681151F8BDFFB50F469E
:101940001546110A6D4A8800125881B012681E4669
:10195000002A01D0D46803E06A4A002314581350C7
:10196000002C18D0201F4288674B9A4213D1008860
:10197000602810D12046403002898A420BD18088ED
:10198000002808D0A068002802D0204602F0B0FE4F
:10199000204602F0B3FE33462A463946019802F04B
:1019A000B3FE6BE7F8B5160A544CB50060591746FC
:1019B00000281CD04030017E104602F043FD38461E
:1019C00002F01CFD012802D006280FD108E0615961
:1019D0006031C87B020709D5F7221040C87305E0C3
:1019E00060598030417C304602F0CEFD0020F8BDC9
:1019F000F0B50646050285B0681C009080B201462D
:101A000002903F4802F030FD0121029802F01AFDD9
:101A100002F062FE394CB7000128E05903D0603073
:101A2000C17BE72214E06030807B002809D07D2252
:101A300052013348029902F043FE0321029802F05A
:101A400001FD304602F066FEE0596030C17BEF22B6
:101A50001140C173E0596030C17B4A0711D5FB22A8
:101A60001140C1730098ED1D82B225480024A9B22F
:101A700004230D3802F0ECFC4680047002F0EEFC0A
:101A8000FCE600220121304602F04AFEF6E610B5DF
:101A90001046140A02F0B2FC0B280CD01749A00023
:101AA00008586030C07BC00603D53D21204602F0B7
:101AB0006BFD002010BD2046FFF79AFFF9E770B5D7
:101AC00010460D46140A02F099FC002828D014286C
:101AD00026D015281AD00949A00008586030C07BCC
:101AE000C00615D53D21204602F04EFD18E000004D
:101AF000D8020800E0010020300008004C03080074
:101B0000240400003080002038830000022070BDD3
:101B100002F0E2FD012803D129462046FFF7DAFA58
:101B2000002070BDF8B507461D460E461446104607
:101B300002F064FC142806D02B4622463146384673
:101B400002F0F4FDF8BD0020F8BDF8B507461D46CB
:101B50000E461446104602F051FC142806D02B46BF
:101B600022463146384602F0E7FDF8BD0020F8BDB8
:101B7000FEB5124D019117461E46002400902946DD
:101B800002F036FC050005D033463A46019900982C
:101B9000A84704462046FEBD70B509480378021DDB
:101BA0000021084D07E0CC00165D012E01D124185C
:101BB000A560491CC9B29942F5D370BD8C410300A0
:101BC000040608001C4C0020FEB5514D019117463B
:101BD0001E4600240090294602F00AFC050005D0AC
:101BE00033463A4601990098A84704462046FEBD70
:101BF00070B5064614460D46104602F0FFFB240A57
:101C0000002836D04348301806D001281FD00C28B1
:101C100021D00E2827D11AE02878002829D03E4D5F
:101C2000A600A859428E002A23D041230121204634
:101C300002F088FDA95900204886A85900680028AC
:101C400017D1200201210E3002F0FCFB11E02878B0
:101C5000002808D10DE0204602F07AFD0A2808D1BC
:101C60002878002801D0412100E00021204602F020
:101C700075FD002070BDF8B515460C46104602F003
:101C8000BDFB2F0A00282CD0234DBE00A859408E42
:101C90000D280BD02148A2780088217983B23846DC
:101CA00002F062FDA859408E00280CD02078002850
:101CB00019D04123A8590121428E384602F042FD35
:101CC000A95900204886384602F042FD012803D079
:101CD0004621384602F042FD22796188384602F0FA
:101CE00049FD0020F8BD0023E4E7F0B50D480E23C0
:101CF000021D0B4C0578002107E0CE00975D9F4246
:101D000001D13618B460491CC9B2A942F5D3F0BD5F
:101D100028490300F4FBFFFF540508006001002080
:101D20004C4C002004060800F3B50546204980000D
:101D30000C582802401C87B281B00026384602F0B9
:101D40005DFB152807D19520005D002803D002F027
:101D5000C3FC002818D023464033988AD98A884289
:101D600000D808464004020C99823946114802F016
:101D7000A7FC012194200155384602F063FB803412
:101D8000607D002805D101E01F26F8E7A07D00282E
:101D90000CD000206075A075022002F07FFC0028A6
:101DA00004D029463046029A02F0EAFCFEBD00004B
:101DB0004C0308002304000005200007018830229E
:101DC00011430180018803221143018070470520DF
:101DD0000007018830229143018001888908890029
:101DE00001807047FEB50020854E03462822002161
:101DF000424392198C00491C13510A29FADB401CFA
:101E00000428F3DB02F0B6F87D48002208380260AF
:101E10004260154600247B486900475A0120A040D3
:101E200080B207421CD0282068438019A100405886
:101E3000411C19D0002810D0C117224602F092FB95
:101E40002A0102F08FFB6E4B083B1A685B68104357
:101E50006B4A1943083A10605160641C0A2CDDDBA0
:101E60006D1C042DD6DBFEBD0095019400BEE3E79A
:101E7000F8B5164604460D460A461F4601200021C5
:101E800002F070FB220102F06DFB5D4B083B1A680B
:101E90005B6810401940084300D100BE032C00D1FC
:101EA0000424594960014018690008183E43C6805F
:101EB000F8BD70B504460D460A460120002102F027
:101EC00051FB220102F04EFB4D4A083A136852685A
:101ED00018401140084300D100BE032C00D1042457
:101EE0004949600140180121A940818070BD70B549
:101EF00004460D460A460120002102F033FB220170
:101F000002F030FB3E4A083A13685268184011400C
:101F1000084300D100BE032C00D104243A496001DB
:101F200040180121A940418070BDFFB581B00C4629
:101F300005460A461F46012000210A9E02F012FBB8
:101F40002A0102F00FFB2E4B083B1A685B68104019
:101F50001940084300D100BE002E2146284602D079
:101F6000FFF7C5FF01E0FFF7A4FF3B4621462846E7
:101F7000039AFFF77DFF05B0F0BD70B5012421463F
:101F8000133881400D4688B200F02AF884401F487B
:101F9000C189A9430C43C48170BD10B504461338F0
:101FA00004280BD82046FFF7E8FF1549A000A03110
:101FB00040188038406B002801D0804710BDE106F2
:101FC000C90E012088401249086010BD1320E4E7C3
:101FD0001420E2E71520E0E71620DEE71720DCE713
:101FE00000280AD0411E4840C003010C002001E037
:101FF0004908401C0029FBD100E0102080B2704746
:10200000289000205C4C002000300050001400504C
:1020100080E200E010B5FFF7DAFE052109078888A5
:10202000174AC30B104618D0164B1C88640714D5EA
:102030001178890710D5198802221143198019884F
:102040004908490019804468002C05D0985E042195
:10205000595E0A229A5EA04710BD8988C906FBD541
:102060001178C907F8D0084901228A800A8880239C
:102070009A430A8080680028EED0804710BD000097
:102080004880002000020050000100500843012158
:10209000890303460B432E490B802E4B18430880BF
:1020A000092002434A80704729490A880F239B016F
:1020B00000079A43800D02430A807047244826494E
:1020C000028802231A430280491E02D30288920723
:1020D000FAD400210181408970470AE000BF00BFA7
:1020E00000BF00BF00BF00BF00BF00BF00BF00BFF8
:1020F00000BF401EF2D2704770B502225102044662
:102100004E003046FFF7C2FF1420FFF7E6FF002C19
:1021100001D0092000E00720FFF7C6FFFFF7CEFF40
:1021200005460120FFF7D9FF022200213046FFF7C4
:10213000ADFF002C01D0092000E00720FFF7B4FF1D
:10214000FFF7BCFF4019024A0021118070BD00005A
:102150000015005001400000A086010008B589214B
:102160000520000701810121634A4903118001888C
:1021700080221143018001888908890001805F481D
:10218000018A02221143018200F05EF902F0FEFA98
:1021900002F002FB0020694601E00888401C08802C
:1021A00008889128F9D308BD08B555490020088052
:1021B0004880554A534BD380FF23D2331381C880C4
:1021C000C3215180514A082111806946088003E0EB
:1021D0006A461188491C1180694609889129F7D3FC
:1021E0006946088003E06A461188491C11806946E7
:1021F00009889129F7D3694601E00888401C0880C6
:1022000008889128F9D308BD414A50809180012067
:102210001080D088C007FCD17047F1B5FFB0FFB087
:1022200094B011AC35480494008AA41C1090FFF7B8
:1022300095FF334801880F9141880E913249CA8831
:102240000D920A890C92C2880B92408B0A903148F9
:102250004088099048888446FFF7A6FF00252B4652
:10226000FF2111A8FFF7D0FF00210A460846049E6F
:10227000275C365C7E40F607F60F8E401643491CFD
:10228000C9B2F2B2082906D1FFA9C96C4A556D1C22
:102290000021ADB20A46194FC82620373E801030C3
:1022A000FF2680B2B600B042E1D95B1C9BB2022B84
:1022B000D6D312491098088214490020088010488B
:1022C0000F9901800E9941800F490D9ACA800C9A8E
:1022D0000A810B9AC2800A9A42830E4A099850805A
:1022E00060464880052000070188802291430180D4
:1022F0007FB07FB015B0F0BD00020040E03000506C
:1023000000240050808000006028005020200050F1
:10231000003500500026005030B4344C3349344866
:10232000603409E043681A780A6002685B1C521E38
:102330000CC00838002A05D0A28B9207D20FF1D129
:1023400030BC7047002242604B680224A3434B60BC
:1023500081680029F4D0826030BC0020084710B5A5
:10236000224881680907090F01291AD002291CD0C7
:10237000042917D00C2914D11D4A117E012910D12E
:1023800041690906C90F0CD00021D1601161838811
:102390005B085B0083805369002B02D001205161F0
:1023A000984710BD00F004F810BDFFF7B5FF10BD51
:1023B0000F490E4809E002680B691A70CA685B1C75
:1023C000521E0B61CA60002A04D04269D207D20FA4
:1023D000F1D1704700220A6143685B085B004360EB
:1023E0004B69002BF5D000204A61184700110050BE
:1023F0005480002030B58C498C48CA05148880234D
:102400001C4314808A4C65892D0701D4491EFAD2D9
:10241000884C01212160884C0188218087494088AF
:10242000088010889843108030BD002070477047A6
:10243000704770470020704701218907086B072209
:10244000104308637047704730B57E497C48086088
:102450007D494C2008807C4C7C4B203C23827D496C
:102460007B4848807D487C4901807B491931418007
:102470002221418181218900018279494182794962
:102480000183774911314183744A77492032918021
:102490004122764912018A80754ACA80744D1035EE
:1024A000CD810A824A82921C8A826A1FCA82FF22D6
:1024B00046320A836F4A4A836F4A592111806E4916
:1024C0006E4D20310D8043254D806D4D5582D522B6
:1024D0008A80FF22D3320A816A4A4A816A4A8A8103
:1024E0006B4A6A49118058496A4A60394A80CA88E9
:1024F00010252A43CA80614A0A3A0A81524D664A27
:10250000403D6A80638208224A814C495A4A0988C0
:10251000403A11824849614A098811806049097826
:10252000002901D03021018330BD4008704700B53B
:102530008BB05C4A42625C4A82625C4A42615C4A9D
:10254000C2625C4A02605C4A02625C4A42605C4A67
:10255000C2613C4A3A48002110603A484038026B58
:1025600003129A430263426B1F231B049A43032303
:102570001B04D218426353480268C3129A43026094
:10258000026803139A43026068464154491CC9B269
:102590002829FAD3014628224B4801F09FFEFFF775
:1025A00053FF01F0DDFE49490880002001F0DEFE06
:1025B00001F0E2FE0BB000BD10B5224920480860D2
:1025C00020484038416B1F22120491430322120419
:1025D0008918416300060168C908C9000160052027
:1025E0000007018989088900491C018101890822A5
:1025F000114301810E484189890504D5018878225B
:10260000914308310180FFF71FFF3148006F0078C8
:10261000002804D02F4800880B496039C880012069
:1026200001F0DAFE10BD0000A0860100087F040062
:102630002000005000800040560208004A030800B5
:102640004C05540780000040602C00507F7F000044
:10265000AC290000002200500909000000240050AD
:102660002204000030D00000EE11000000250050D0
:102670002E02000044200000402800500D9500006C
:1026800002420000E4DC00001092000053780000D9
:10269000002A00508B1000009DD50000002600503D
:1026A000708000202B2400202F24002035240020BF
:1026B0003924002031240020472400203324002026
:1026C0002B250020000200402000080078040800AC
:1026D000E00100205204080070B50125AD07AC6B85
:1026E0002046FEF7E8F9D34901F048FF27221201FE
:1026F000511A00D10121D04A50601160286B082185
:10270000884308432863CD480460CD48006800280A
:1027100002D0A04200D200BE70BDFFB500256A46BF
:102720001570C849096800297CD00A464032937C5C
:10273000002B77D0C44CC54B012813D0098D2646F9
:102740000907803E0127366FC90EFF04C919715A67
:102750006E46890B31713179002963D031790129B5
:1027600006D011E06E46E16C3170002199700BE0EB
:1027700011894E267143B64E25688919695A6E46ED
:102780000D0AD17C691A3170317800294BD0B14DD6
:10279000B049603DAE6E097B2E254D43B446751998
:1027A00005E0491C4907490F2E254D4365446E46F7
:1027B0003678761E37063F0E6E463770F1D1AD780B
:1027C0006E06760E6D462E712D79AE06B60E6D46EE
:1027D0002E722E2569439E4DA469463D4919615AC2
:1027E0006D46C906C90F2973012805D000209870CD
:1027F000287B00280FD10BE0287B002802D1287A03
:1028000000280FD0107D00280CD101201AE009E02B
:10281000287A002806D0107D002803D1D07D082119
:102820000843D075FFBD0128FCD0002D02D0987858
:10283000002806D0107D002803D1D07D0821084350
:10284000D07500209870FFBD10B5052000074189A4
:10285000890708D041898908890041817E494A88D1
:10286000520852004A800189802211430181018A65
:10287000042291430182818A8907FCD501F092FFED
:10288000012080070169490700D500BE0169490799
:10289000FCD510BDF8B56D4EF08800282AD1012076
:1028A0000527F0803F077889800720D0B88A400745
:1028B00001D501F081FB684D2888802108432880DC
:1028C000664CFF20608004202080FFF775FA7D2190
:1028D000C900E088A288000480188842F9D9052040
:1028E0002080B088788029888020814329805C49B5
:1028F00010200860F8BD70B5FFF769FAFFF7A4FF74
:10290000524C00265748E680018949084900018158
:1029100001208007816904221143816101F048FF91
:102920004F49102080310125086001F047FF01F078
:102930004BFF494826704089800510D560780028F3
:102940000DD1494865700088C00708D10120FFF704
:10295000D3FB8B218900884201D90220607070BDB1
:1029600010B501F037FF00F05DF83849012008701C
:1029700010BD10B501208007008A000601D500F0C7
:1029800051F810BD10B50120FFF7C7FE01F028FF78
:1029900010BD10B50124A407208A000718D5022015
:1029A000FFF7BBFE01F022FF2068400040086100F5
:1029B000084320602068C00FFCD11F4880300168A8
:1029C0000906090E01D00121016020490420087088
:1029D00010BD70B52548008885062548AD0E4468B1
:1029E0001948006F0078002802D1284601F004FF42
:1029F00020480089154EC00507D520060BD5E007F5
:102A000009D0284601F0FEFE03E0200603D5E007CA
:102A100001D003203070200403D5E00501D5022049
:102A2000307070BD10B509490120C87001F0F0FE8A
:102A300010BD0000710200004000004080800020B6
:102A40007C8000206C030800E001002072800020E0
:102A50004A0008003803080020000050001600500B
:102A600000E200E00033005000150050002000504C
:102A700000020040002C0050FEB5604C0026606D46
:102A800037460090FDF743FF5D4D002802D12879BD
:102A9000022801D100200090FEF737F800280ED15F
:102AA00001F0BCFE00280AD055480126C078002855
:102AB00005D005252D07A88AC00701D004269AE075
:102AC00001F01EFC00287DD14E488069002801D00D
:102AD000606D00904A48009C8178684601F0A4FE31
:102AE00000286FD001208007406940066AD444481E
:102AF0008178684601F0FEFB00287CD00020FF2191
:102B000000942D3101240190A407206A8842FCD34F
:102B10003B488178684601F087FE00286BD06069E9
:102B2000400668D436488178684601F0E3FB002807
:102B300061D00098002804D00199002901D0401EDE
:102B400000903149002209788320022900D1B52064
:102B50002E490B78012B00D121300A70E26B0F2136
:102B6000920A92020A43E263E16B294A8002114011
:102B70000143E163E06B3721C002C00A89050843C5
:102B8000E06300980426002801D0001D0090C002D8
:102B9000642101F0F3FC002800D0401E1D490860AC
:102BA00017490979002900D0012101F043FE1A4894
:102BB000C06A8047FDF7C0FF00280AD0288830216E
:102BC000084300E017E02880288803210843288074
:102BD0000127206B0004C00FFBD010480168C90515
:102BE000FCD5002F01D0FFF7F2F801F029FE28896B
:102BF0008021884328813046FEBD0000600200200D
:102C0000C6060800A80508005402080073800020CA
:102C1000FF03E0FF7C8000201C070800000200404A
:102C2000FFB5002685B0154641486A46344637460A
:102C30001082002904D0042203A801F04FFB02E017
:102C40000020C0430390002016E003990141C9070A
:102C500010D00F99020151180A79022A02D0102AC5
:102C600005D102E0761CF6B201E0641CE4B20989E9
:102C7000C9198FB2401CC0B2A842E6D30094002309
:102C8000324601970E99059801F0E0FD00242AE0F4
:102C900003992141C90724D00F9927017E18F18893
:102CA00002A8009101900F983279C3590598318993
:102CB000008801F0D1FD002813D17189002910D0BE
:102CC0003079022807D10F980222C05904A901F0D7
:102CD000FFFA00280DD0684671890089F26801F07A
:102CE000C1FD641CE4B2AC4201D20028D0D009B0CE
:102CF000F0BDF0684078FF2809D00899002906D077
:102D000005996A4609781289511A089A11546A4637
:102D10001089411C11807189F26801F0A3FD00281F
:102D2000DFD16B4602220121188901F0A1FDD8E70D
:102D30000328000010B51221244801F09FFD24490A
:102D40001C2001F0A1FD00211C2001F07BFB10BD27
:102D500030B503460120002103241A46CA40D20799
:102D600004D04D0022466D1CAA401043491CC9B234
:102D70000929F2D330BD02460020122901D98D2045
:102D80007047062A06D0072A07D0082AF8D1072953
:102D9000F5D170470829F2D170470629EFD3704763
:102DA00070B50A4C0546218802231C22094801F00F
:102DB0004FFB058001F052FBE088002101F06AFD25
:102DC00001211C2001F03EFB70BD0000848000202A
:102DD000784D002004700000FEB53B4E1C20708032
:102DE0001D46174634460888FFF7B2FF0290374861
:102DF000334601900833132202A90097A01D01F069
:102E00004FFD040008D1F088002101F043FD044685
:102E100001211C2001F016FB01231C2229462C480D
:102E200001F016FB047001F019FB0020FEBD70B527
:102E30000C4625490B802078082814D8CA88083108
:102E4000415C51188DB2822D0BD06178FFF793FF52
:102E5000010009D16D1C6178A8B2A21C01F002FD2D
:102E600008E0822100E08121194B17485B1CDA1C25
:102E700000F030F8002070BD70B51D460C46088883
:102E800001F014FD104AFF281071158009D0A178B7
:102E9000D08801F0FFFC02211C2001F0D3FA0020B1
:102EA00070BD0B4B89219B1C9A1C074800F012F83F
:102EB000F5E710B5044A180A1279904202D1088841
:102EC000FFF76EFF002010BD84800020644C0020BE
:102ED00001700000F8B514460F461E4605464288AC
:102EE00001880623204601F0B3FA0446287901F050
:102EF000E3FC208027716680204601F0AFFAF8BD20
:102F000070B51446428800790D46010204232E480C
:102F10000C3101F09DFA002D01D0132100E01221A7
:102F20000170448001F09AFA70BD38B520206946DE
:102F3000264C08706088002800D0401C0B4680B2E8
:102F40000122002101F094FC6088002800D0801C40
:102F500080B2402101F0B6FCFFF7ECFE00241C4DCE
:102F600009E040194069002803D0641CE4B280479E
:102F700001E0641CE4B220461C214843295CFF297F
:102F8000EFD138BDF7B50D461C2001F037FA022805
:102F900005D1EAB21C230299009801F0E5FB0098E4
:102FA00000240B4E070208E03B460343641CE4B2D6
:102FB000EAB20299009801F0D7FB1C206043305C14
:102FC000FF28F1D1FEBD00000D300000F60408001E
:102FD000204F002010B50E21104801F04FFC104981
:102FE000362001F051FC0121362001F02BFA10BDF2
:102FF00070B50A4C0546628821880223094801F011
:1030000027FA058001F02AFAE088002101F042FC4D
:103010000021362001F016FA70BD000098800020D3
:10302000C84D002009D80000FEB5DA4C1F460D46F9
:1030300062800023D84816E0914212D131184968C5
:1030400000290ED01C214B431818406801900092B3
:103050002A78A01D6B68A968FFF7E2FD060008D07A
:1030600011E05B1CDBB21C265E43815DFF29E3D1CE
:1030700012E028782072E088002101F00BFC00218A
:10308000362001F0DFF9012336223946C34801F02A
:10309000DFF9067001F0E2F90020FEBD70B51D46B3
:1030A0000C46088801F002FCBA4AFF28107115800E
:1030B00009D0A178D08801F0EDFB0221362001F083
:1030C000C1F9002070BDB54BB44A5B1C093289219F
:1030D000B048FFF7FFFEF4E7F0B5AE4815460C46E2
:1030E0000279190A8FB091427DD12388C188007A74
:1030F000591A8EB2B04278D90AAA0EA9184601F020
:10310000E7FB6846018D2046A54A083001909142B0
:1031100018D1208800F05BF907A901F0DFFB6846B1
:10312000808B4005800F012800D00020214600F050
:1031300039F905062D0E2DD161882088019A01F0FC
:1031400091FB26E00020944F15E0A94211D1D1193E
:10315000896900290DD0019900911C256843C01987
:1031600085696388A288E1793046A847050008D0C0
:1031700010E0401CC0B21C2141430A46B95CFF2943
:10318000E3D1A288002AD7D061882088019B01F072
:10319000ABFB0546E079002828D0002D26D12088F9
:1031A00009AA02A901F0A6FB68460089801D83B226
:1031B0007848428801887948C01D01F049F90746DE
:1031C00068460289B81D099901F088F871480079AC
:1031D00001F072FB38807E8068460089B8803846EE
:1031E00001F03CF902E00AE0FFE78225A07901281E
:1031F00005D16848218800792A4601F081FB00202A
:103200000FB0F0BD70B5634C0E4608782188628817
:10321000122802D0132808D018E060480623001DA9
:1032200001F016F90546608906E05C480623801D1A
:1032300001F00EF90546A0896880207901F03CFB79
:10324000288070782871284601F008F9002070BDA8
:1032500070B5504D0C46287901F02EFB218888422C
:1032600007D1E8886188A21D401880B2A18801F0CA
:10327000F9FA002070BDFEB5464D0C46287901F0E4
:103280001BFB2188884223D1E8886188A21D401851
:1032900080B2A18801F0E6FAE8886188401880B21F
:1032A000297A00F0B3F86A4601A901F023FB0098DF
:1032B0000088012801D08B260BE0E888618840183F
:1032C00082B200213348FFF71BFE6088688112E05C
:1032D000812632486A8829880623001D01F0B8F843
:1032E000074660887880287901F0E6FA38803E71D8
:1032F000384601F0B3F80020FEBDFEB5254D0C4662
:10330000287901F0D9FA2188884223D1E888618898
:10331000A21D401880B2A18801F0A4FAE888618853
:10332000401880B2297A00F071F86A4601A901F0CC
:10333000E1FA00980088022801D08B260BE0E8888B
:103340006188401882B201211248FFF7D9FD6088D8
:10335000A88112E0812611486A8829880623801DE9
:1033600001F076F8074660887880287901F0A4FAA1
:1033700038803E71384601F071F80020FEBD10B56E
:10338000044A180A1279904202D10888FFF730FEE9
:10339000002010BD98800020204F002001D80000A0
:1033A0000229000002464B880020022B01D00D208C
:1033B00070470989002A05D00029F9D00129F7D0E2
:1033C000812070470029FCD00229F9D1704770B5DF
:1033D00086B0044601F0C0F805461D4E0EE06A4670
:1033E00004A9204601F074FA68460088B04203D16F
:1033F000641CA0B206B070BD641EA4B2A888A0422E
:1034000002D8E888A042EAD20020F3E7F0B585B000
:10341000044601F0A1F80E4E0546FF360C4F0FE0B2
:103420006A4604A9204601F053FA68460088B04273
:1034300002D1204605B0F0BDB84207D0641CA4B24A
:10344000A888A04202D8E888A042E9D20020F1E78B
:103450000328000010B500F00BFB00F025FA002057
:10346000FDF74BFA10BD0C2250430C4A10B58018E2
:103470008078FF2803D0088800F022F810BD00F003
:1034800055FE10BD10B500F0E1F9002801D000F0A4
:103490004DFE10BD10B500F049FE10BDC0800020EB
:1034A0000021F94A05E0834201D101207047491CFF
:1034B000C9B20C234B43D35CFF2BF4D100207047DF
:1034C000F8B505460024F04E0AE08019816800290D
:1034D00004D0641CE4B22846884701E0641CE4B2CE
:1034E00020460C214843315CFF29EED1E64E0024F2
:1034F0000C3609E08F19B968002903D0FFF7D0FF17
:10350000002809D0641CE4B20C216143705CFF28E0
:10351000F0D10024DD4E10E0641CB968E4B2284606
:103520008847F1E780190169002904D0641CE4B2DE
:103530002846884701E0641CE4B220461C21484329
:10354000315CFF29EED1F8BD70B5CF49D04C0E46A5
:103550000C36CE4D0DE052185268002A07D0C2B288
:103560000C235A4351184968401C60702DE0401CE0
:10357000607060780C2242438B5CFF2BEBD10AE039
:1035800089194968002903D0FFF78AFF002809D06C
:103590002078401C207021780C204143705CFF286B
:1035A000EED117E020780C21414389194968401C6D
:1035B00020700AE04919C968002909D0C1B21C224B
:1035C00051434919C968401CA0708847002070BD4C
:1035D000401CA070A0781C2141436A5CFF2AE9D1FD
:1035E0000020A07060702070012070BDFFB581B018
:1035F00004461E46154618460A9F01F0C7F900907A
:10360000267021463846009A01F080F9002803D040
:1036100000BE002020700BE02278AA4200D900BE34
:10362000AA4200D32A4622700099029800F056FE62
:10363000009801F081F905B0F0BDF0B5944899B05B
:10364000C06800285DD1502332220D21914800F03E
:10365000FFFE04468E4E0025F0600E20207065703F
:10366000A580A020A081E081072020740120607443
:10367000A57421460B2014310090481E20231C22E3
:1036800017910190FFF7B2FF21460C2031310090D5
:10369000481E20231F2218910290FFF7A7FFF06811
:1036A0001A22C17C2030571A007C1D210E1A684650
:1036B0000574002F01DC002E23DD3E2069460874CE
:1036C00006AA04A9022001F021F9002803D000BEB7
:1036D0006846057415E06846017C002911D08F42C8
:1036E00005DBE27C179806AB1218019807E08E42C2
:1036F00007DB2034227C189806AB1218029800F0E1
:10370000E1F86348C06819B0F0BD70B5604E04467A
:103710008500361D7059002814D121020A23322257
:103720005D480E3100F094FE0A210170002C00D09B
:1037300000BE705110218180082141800021C1808C
:103740007D210181705970BD70B5514DA868002868
:1037500021D15048222332220D210A3800F078FE70
:10376000032101700446A8600A20474960701022B6
:103770002139A01C00F0B2FD002161822175617524
:103780001720E0820820208310206083A18364201A
:10379000E08320342170A86870BD3E4810B5012335
:1037A00032220D210B3800F053FE0221017000F08F
:1037B00055FE10BD364810B50C21183001F05EF8EA
:1037C00033490020183101220C2343435B18401C6D
:1037D00000061A71000EF7D02B493220243101F077
:1037E00053F80021322000F02DFE10BD70B50D46BB
:1037F0000102294814462C2332220C380E3100F0E5
:1038000027FE014620310D724C7200F027FE70BD7C
:1038100013E710B5FFF711FF00F020FE1C49002050
:10382000C8600221322000F00DFE10BD10B5044624
:10383000FFF76BFF00F012FE154A0020A100121DD9
:1038400050500421322000F0FDFD10BD10B50121C3
:10385000322000F0F7FDFFF777FE10BD74E610B5DB
:10386000FFF772FF00F0FAFD09490020886010BDE3
:10387000074A002124324B00D35C83420ED148001A
:1038800080184078704700006C4E0020204F0020C8
:10389000A88000200E3400000E380000491CC9B278
:1038A0000A29E8D30120EDE710B50020FF230E49D7
:1038B000012442008B545218401CC0B254700A2894
:1038C000F7D310BD70B50646481C10700920154688
:1038D0000C46507022461946A81C00F0FFFC3078B8
:1038E000A41C0019307070BDCC80002010B51046AB
:1038F00000F084FD002809D1012332220D2159480E
:1039000000F0A6FD0121017000F0A8FD002010BD0F
:1039100070B50D78544C0E2D23D008DC012D14D039
:10392000022D0CD0032D16D00D2D08D10BE00F2D3C
:1039300009D0102D07D0112D05D0122D03D02568E8
:10394000002D00D0A847002070BD48780028FAD18B
:10395000FFF785FFF7E748780028F4D1FFF792FDDD
:10396000F1E7487800F047FCEDE7F8B51C46104653
:103970000E4600F043FD022824D1240A00D000BEE8
:103980000C202746474339483D18AC70FF2C15D012
:103990000121E9700521322000F054FD33483188BF
:1039A000C153707A68713146A81D06220A3100F0B1
:1039B00095FC002211462046FFF718FF31462046AD
:1039C00000F0F2FB0020F8BD70B50C4609781646F1
:1039D0000A2908D0244D2968002902D021462C68E4
:1039E000A047002070BD104600F008FD0428F8D163
:1039F00060780028F5D10521304600F023FDF0E77E
:103A000010B510460C4600F0F9FC032803D0052839
:103A100001D0042802D1204600F0F1FB002010BDA7
:103A200010B510460C4600F0E9FC012808D12078BA
:103A3000002805D1FFF712FF002801D0FFF72AFD6B
:103A4000002010BD00207047FEB51C46064D089BA7
:103A500007262D1D6F4668C71346224600F005F95C
:103A6000FEBD000002340000A04E0020C0800020F7
:103A7000704710B51C2102233222880200F0E8FCB6
:103A8000FF217431018000F0E9FC10BD70B50546DE
:103A9000042332221C21074800F0DAFC044605808A
:103AA0001C20FFF7E5FEA0700020E070204600F02B
:103AB000D5FC70BD03700000FEB510460E4600F048
:103AC0009DFC01287ED13078002876D10E23322249
:103AD0001C21484800F0BCFC0446002020700B204C
:103AE0006070024644A1A01C00F0F8FB204600F0E4
:103AF000B5FC0A2332221C213E4800F0A9FC0446F2
:103B000001202070072565702A463EA1A01C00F008
:103B1000E5FB204600F0A2FC0B2332221C21354895
:103B200000F096FC044606202070082767703A468D
:103B300036A1A01C00F0D2FB204600F08FFC082329
:103B400032221C212B4800F083FC0522027004461F
:103B5000427031A1801C00F0C1FB204600F07EFCC9
:103B60000A2332221C21234800F072FC0446042060
:103B7000207065702A462AA1A01C00F0AFFB2046E9
:103B800000F06CFC0A2332221C211A4800F060FC71
:103B90000770044645700120A070D221684601805C
:103BA0000B21C90141807901818006226946E01C10
:103BB00000F094FB204600F051FC32220123114614
:103BC000900200E005E000F043FC3178017000F065
:103BD00045FC0020FEBD00207047FEB51C46089B3A
:103BE0000226114D6F4668C71346224600F03DF885
:103BF000FEBD0000027000004469616C6F672053D5
:103C0000656D69004441313435387800123456FF0F
:103C1000FE9ABCDE00000000782E792E7A000000AB
:103C2000765F352E302E3400EC4E0020FFB583B089
:103C30001E4F002401AEA00000963D5803A80FC8F7
:103C4000A84700280ED0641C042CF4D3174C241F62
:103C50002068002803D003AD0FCD2468A0470020C2
:103C600007B0F0BD68460079FAE7F8B5089C9C46B5
:103C7000079D0346002C16D0641E14D40C4FE6009A
:103C8000AE5B9E4201D0BE420BD1E3005B195C6883
:103C9000002C08D013466246A04706990870002001
:103CA000F8BD641EEBD50120F8BD0000004F0020D8
:103CB000FFFF000010B5052000070089000608D5A9
:103CC00001208007006B000403D400F019FBC0073B
:103CD00001D0002010BD012010BD704770470000CA
:103CE00070B50D460446FFF7E5FF002807D06E4883
:103CF0002A46201880B2322100F0E2FC70BDFCF7A9
:103D000009FE6948322204231146801E00F0A0FB00
:103D10004580047000F0A2FB70BDF8B5634C069DB1
:103D200006190024002E26D0012E0BD0604B1A4617
:103D3000283A022E0AD05D49C91E41180A292BD300
:103D40000120F8BD00F086F828703AE00878461E99
:103D5000092E0ED88000001F1058564FB8422FD1A0
:103D6000B0001B5813504A8808781146FFF7B8FF77
:103D700026E000BE24E04A88002A0BD04E4882424A
:103D800000D300BE08784849401880B2322100F0C4
:103D900097FC15E000BEF5E74449891E4018C0B203
:103DA000411E09290BD88600B1188039C86F002838
:103DB00006D0CC67F1188039CC67804700E000BEA0
:103DC0002C700020F8BD0A46010010B53A480ED00C
:103DD000814200D300BE364B0020283B84001C5992
:103DE000002C06D0401C0A28F8DB002010BD00BEC5
:103DF000F1E784001A51401C0406240EF5D0204639
:103E0000FFF76EFF204610BD70B50446401E09281E
:103E10001ED82748A10028380D18803DE86F0028DB
:103E200014D0264EB04211D01F483221201880B243
:103E300000F01AFB1C48322204231146401EEE6794
:103E400000F006FB047000F009FB70BD00BE70BD01
:103E500000BE70BD10B508780C46411E09291FD858
:103E600082001348121F28388258144B9A4205D1F9
:103E70000022890042502830425012E08900405808
:103E80000C4988420DD1322204231146064800F025
:103E9000DFFA217801706188418000F0DFFA00E0EC
:103EA00000BE002010BD000003C80000FF37FFFF68
:103EB0000C810020DD3C002030750000DB3C002040
:103EC00010B5362110233222880200F0C1FA0021F9
:103ED000144A03E0362B0DD0491CC9B21C234B43B6
:103EE000D35CFF2BF6D1002141608160818100F01D
:103EF000B5FA10BD1C2359438918097A0170F2E7FD
:103F000070B50546042332223621074800F0A0FA96
:103F1000044605803620FFF7ABFCA070204600F079
:103F20009DFA70BD204F002002D8000010B5104649
:103F30000C4600F063FA012809D132220123114610
:103F4000900200F085FA2178017000F087FA0020D5
:103F500010BD00207047FEB51C46089B0226044D8C
:103F60006F4668C713462246FFF77FFEFEBD00007E
:103F7000104F002010B51D48816A002902D0002191
:103F8000C94300E001218162C8170A0C00041043F4
:103F9000174A09041468536821431843116050609C
:103FA00010BD08B50020034603220146009012020E
:103FB0000120FDF7BAFF08BD10B505242407208AAB
:103FC000022188432082A08A0007FCD50948418845
:103FD000FF22013211434180FCF72EFFFFF7E1FF82
:103FE000608A20210843608210BD000028900020D4
:103FF000209000202000005008B500226846027082
:104000008A88891D00F06AF968460078012806D080
:10401000002803D100210120FDF74BFF08BD00213E
:104020000120FDF764FF08BD10B5082332223621B8
:104030002A4800F00DFA2A4C2188491C2180294980
:104040000988018008214180022181802188C18066
:1040500000F004FA322000F0D1F9052804D12249F9
:104060006420FFF7B0FE608010BD38B500226846BE
:1040700002708A88891D00F031F968460078184C72
:10408000002805D018496420FFF79DFE608038BDE8
:104090006088164DA842FAD0C0B2FFF7B5FE658021
:1040A00038BD08B50022684602708A88891D00F074
:1040B00015F968460078012806D0002803D10021B0
:1040C0000120FDF7F6FE08BD00210120FDF70FFFDE
:1040D00008BD7047704770477047000004D8000063
:1040E000DC900020C080002029400020FFFF00005D
:1040F00010B5FFF752FB10BD10B5644C2078FFF7E8
:1041000095FB0020A07010BD10B5604800218170A3
:104110005F4805220270FF224270CD228270AB22DE
:10412000C27001714171FFF795F910BD70B57D2026
:104130005849C000FFF747FE54494870FFF768FB35
:1041400053494A790B7912021A43521C92B20A71EE
:10415000130A4B71504B9A4202D100220A714A71E4
:104160000446C07C1C234A4906221B1A062B08DB86
:1041700023461433C01800F0B1F8E07C801DE074D1
:104180000FE025462035287C1F231B1A062B07DB52
:104190003134001900F0A2F8287C801D287400E05A
:1041A00000BEFFF736FB70BD70B50C4605460C200F
:1041B0003A49684340188078FF2815D0334E35704F
:1041C0007078FFF721FE60880838092805D2A0889A
:1041D000002802D1E0887D2808D07D203049C00029
:1041E000FFF7F1FDB07001E0FFF7A0FF2146284680
:1041F000FFF739F970BD442800D197E7704710B533
:10420000224CA078002803D0FFF7FEFD0020A0700C
:10421000322000F0F3F8032803D0052801D0042849
:1042200001D1FFF783FF10BD70B51E4C041914D0E7
:104230001D4D641911D0022C0FD0032C0DD14C88C8
:10424000142C1DD00ADC022C11D0052C12D0092C04
:1042500013D0102C01D1FFF73FFF70BD172C12D0E7
:10426000182C0DD01B2CF8D1FFF7C6FE70BDFFF740
:10427000FCFE70BDFFF715FF70BDFFF72CFF70BD92
:10428000FFF727FF70BDFFF725FF70BDE09000200E
:1042900034810020F1400020FFFF0000C08000209A
:1042A000F9400020EFC7FFFF0C60FFFF064C01251F
:1042B000064E05E0E36807CC2B430C3C98471034CE
:1042C000B442F7D3FCF7C0F8DC4F00200C500020BC
:1042D00003B40148019001BD773B030003B40148DA
:1042E000019001BD213B030003B40148019001BDD1
:1042F000D729030003B40148019001BD2B690200D6
:1043000003B40148019001BDC12D030003B401486D
:10431000019001BD0921030003B40148019001BDD2
:10432000C92D030003B40148019001BDEB31030026
:1043300003B40148019001BD3D32030003B40148BC
:10434000019001BDD721030003B40148019001BDD4
:104350002F2F030003B40148019001BD998F020083
:1043600003B40148019001BD938F020003B40148DA
:10437000019001BDCD8C020003B40148019001BD44
:10438000418F020003B40148019001BD276802007B
:1043900003B40148019001BD3968020003B401482B
:1043A000019001BDB780020003B40148019001BD36
:1043B0000F3B030003B40148019001BD551B0200EF
:1043C00003B40148019001BDCF2B030003B40148A1
:1043D000019001BDCB2C030003B40148019001BD45
:1043E0000990020003B40148019001BD831D020041
:1043F00003B40148019001BDBF24030003B4014888
:10440000019001BDB326030003B40148019001BD32
:10441000FD3D030003B40148019001BD197D020078
:1044200003B40148019001BD0522020003B4014814
:10443000019001BD1522030003B40148019001BDA4
:10444000533B030003B40148019001BD3126030032
:1044500003B40148019001BDB123030003B4014836
:10446000019001BDE123030003B40148019001BDA7
:10447000A528030003B40148019001BDD5AF020097
:1044800003B40148019001BDA1A5020003B4014895
:10449000019001BDE3A5020003B40148019001BDF4
:1044A00087A8020003B40148019001BDA7A902003A
:1044B00003B40148019001BD93AA020003B401486E
:1044C000019001BDF9AB020003B40148019001BDA8
:1044D00069AC020003B40148019001BD17AD0200B0
:1044E00003B40148019001BD77AD020003B4014857
:1044F000019001BDF1AD020003B40148019001BD7E
:1045000085AE020003B40148019001BD11AF020065
:1045100003B40148019001BD859A020003B401482B
:10452000019001BDD3B2020003B40148019001BD66
:104530007FA5020003B40148019001BDD7A5020088
:1045400003B40148019001BD75A5020003B4014800
:10455000019001BD19A7020003B40148019001BDFB
:104560005799020003B40148019001BD8D3D03003D
:1045700003B40148019001BD3350020003B4014867
:10458000019001BDA73A030003B40148019001BDA9
:104590005548020003B40148019001BD1F500200BC
:1045A00003B40148019001BD7F0C030003B401482E
:1045B000019001BDAB0C030003B40148019001BDA3
:1045C000BF22020003B40148019001BDEB260300A5
:1045D00003B40148019001BD3524030003B4014830
:1045E000019001BD2F22020003B40148019001BDDA
:1045F000DD20030003B40148019001BD9D200300AC
:1046000003B40148019001BD49E5020003B401482B
:10461000019001BDF9E3020003B40148019001BD1E
:104620004BCD020003B40148019001BD99D10200B5
:1046300003B40148019001BDABD0020003B40148AE
:10464000019001BD69D0020003B40148019001BD91
:1046500077CF020003B40148019001BD01CC0200F4
:1046600003B40148019001BD29CC020003B4014804
:10467000019001BD15D2020003B40148019001BDB3
:104680008DD2020003B40148019001BDFD3A030040
:1046900003B40148019001BDC52D020003B40148D7
:1046A000019001BDCB7F020003B40148019001BD20
:1046B000EB2A020003B40148019001BD1F32020041
:1046C00003B40148019001BD2528030003B401484B
:1046D000019001BDBD30020003B40148019001BD4D
:1046E000BB7F020003B40148019001BDB93802004C
:1046F00003B40148019001BD7758020003B401489A
:10470000019001BDD722030003B40148019001BD0F
:104710002D42020003B40148019001BD7B3002002C
:1047200003B40148019001BDCD2B020003B4014840
:10473000019001BDB93E020003B40148019001BDE2
:104740007F3E020003B40148019001BDBDE40200B8
:1047500003B40148019001BD61F4020003B40148B3
:10476000019001BD71E4020003B40148019001BD54
:1047700095E3020003B40148019001BD3DF602003B
:1047800003B40148019001BD912A020003B401481D
:10479000019001BDF38E020003B40148019001BDF8
:1047A000218E020003B40148019001BD652C030075
:1047B00003B40148019001BDDB2E030003B401489E
:1047C000019001BD231D020003B40148019001BD09
:1047D000C32C030003B40148019001BD153103004F
:1047E00003B40148019001BD3B66020003B40148D7
:1047F000019001BD2B66020003B40148019001BD88
:10480000038D020003B40148019001BDCF8F020067
:1048100003B40148019001BD1B66020003B40148C6
:10482000019001BD7920030003B40148019001BD4E
:104830002129030003B40148019001BDC7680200AB
:1048400003B40148019001BD0D2C030003B40148DD
:10485000019001BD9598020003B40148019001BD8B
:104860009599020003B40148019001BD6D9B0200BF
:1048700003B40148019001BD739B020003B40148D9
:10488000019001BD533B030003B40148019001BDF9
:104890008725030003B40148019001BD7B9C020001
:1048A00003B40148019001BD459F020003B40148D3
:1048B000019001BDB7E3020003B40148019001BDBE
:1048C000E3E3020003B40148019001BD299C02000A
:1048D00003B40148019001BDC59B020003B4014827
:1048E000019001BD419C020003B40148019001BD4B
:1048F0002B9B020003B40148019001BDA59B02005F
:1049000003B40148019001BDF3AF020003B40148B4
:10491000019001BDD129030002E008C8121F08C19F
:10492000002AFAD170477047002001E001C1121F30
:10493000002AFBD17047000010B5002823D0124B8D
:104940000022001F196803E0814203D80A46496823
:104950000029F9D1002A0AD01368841A9C4204D194
:10496000006818181060104602E0506000E01860FF
:10497000002907D002680B1A934203D10B68D218A2
:1049800002604968416010BD00530020F0B50B3053
:10499000C108C900144F0026144A0FE003688B4277
:1049A0000BD38B4205D95C1A4318456830C3083BCA
:1049B00000E04368136002C004E0021D1068002894
:1049C000ECD13046002803D13868002801D00020FF
:1049D000F0BD064A06481060064A121AD208D200F4
:1049E00044C001203860D7E7045300200053002062
:1049F000EC900020E89100200101000A04280A043C
:104A00000203AA0055032A00A001FFFF2C010000A9
:104A100003100020FFFF0000810C002000080000B0
:104A2000A90C0020144A0020020000005443030097
:104A3000244A00203204080006000100470D00202F
:104A40005D0D0020FF130020BD140020E1140020A4
:104A500085130020291D0020351100209427030014
:104A600062B600DFA4E2020001DF81B01CCA0200CE
:104A7000F8BD02DF40CB0200F5E703DF84D402007B
:104A800004DF89B0941B030005DF00B51C2C020075
:104A900062B606DFEC0C030070BD07DF01140000F6
:104AA000910E0020002800001FA202000C1C000034
:104AB000DDA20200001C00001FA20200012800006D
:104AC000DDA10200021400001FA40200000000008B
:104AD00000000000000000000000000000000000D6
:104AE00000000000000000000000000000000000C6
:104AF000000000009C4A002006000000CC4A002074
:104B0000F44A0020D004080005000600FFFF000062
:104B1000711B002005040000C918002026040000B5
:104B2000A5190020230400004B1B002024040000D2
:104B3000251B002029040000E71800202A0400009B
:104B4000BF1A00202C0400003D1800202F04000094
:104B50008F1A0020010800003D1900200008000005
:104B6000EF3F020000000000000000000000000015
:104B70000000000000000000000000000000000035
:104B80000000000000000000000000000000000025
:104B90000000000000000000000000000000000015
:104BA0000000000000000000000000000000000005
:104BB00000000000000000000000000000000000F5
:104BC00000000000000000000000000000000000E5
:104BD00000000000000000000000000000000000D5
:104BE00000000000000000000000000000000000C5
:104BF00000000000000000000000000000000000B5
:104C000000000000544B00200200000000000000E3
:104C1000000000000C4B002009000000644B002045
:104C2000144C00206403080016000600FFFF00007B
:104C3000C91B00200C040000F11B0020110400001F
:104C4000771C00202C4C00200300000010490300BA
:104C5000444C00206C05080003000600FF003F00E4
:104C6000FF03FF010028010002000200484D002060
:104C700003280100050005004A4D0020292A0100F3
:104C800012000000000000000328010005000500DC
:104C90004F4D0020242A01001200000000000000F7
:104CA0000328010005000500544D0020252A0100BD
:104CB00012000000000000000328010005000500AC
:104CC000594D0020272A01001200000000000000BA
:104CD00003280100050005005E4D0020262A010082
:104CE000120000000000000003280100050005007C
:104CF000634D0020282A010012000000000000007F
:104D00000328010005000500684D0020232A01004A
:104D10000800000000000000032801000500050055
:104D20006D4D00202A2A0100120000000000000042
:104D30000328010005000500724D0020502A0100E3
:104D400007000000000000000A18020000292A02E3
:104D50000100242A020200252A020300272A020455
:104D600000262A020500282A020600232A0207003C
:104D70002A2A020800502A00A84D0020C04D002019
:104D8000968000200300010000700000D92D002053
:104D9000027000002F2E002003700000792E0020EA
:104DA00003380000B32E0020884D002001000000D1
:104DB000904D0020020000000000000000000000F4
:104DC000A04D002001000000184E0020304E0020B1
:104DD000A68000200300010000D800002930002038
:104DE00002D800009D3000200E300000D930002095
:104DF000003000000532002004D800007732002087
:104E000003D800005132002006D80000FB320020F9
:104E1000033800007F330020E04D00200100000037
:104E2000D84D002001000000E84D002005000000E2
:104E3000104E00200100000000000000A000A000B3
:104E4000070100010203040506000A00000000003B
:104E50000000000000000000000000000000000052
:104E6000170008001000000064000000FF000000B0
:104E700000000000000000001C000000733A002049
:104E80008D3A0020FF00000000000000000000003C
:104E900000000000E44E0020E08000200600010039
:104EA0002942002001340000ED38002000340000C9
:104EB0001139002000380000C939002001380000F5
:104EC0006B39002003380000013A002000C80000C0
:104ED000213A002010340000453A0020FFFF000076
:104EE0002D3C0020DC4E002001000000017000007D
:104EF000B93A002004700000D73B0020294200206E
:104F0000493A00201B3D0020DB3B0020573F00209A
:104F100001D800002D3F002009D80000533F002099
:104F200036000000305100201D000000C13E00206E
:104F3000013F0020D52F002000000000FF000000EE
:104F40000000000000000000000000000000000061
:104F5000000000000000000004000033323130295E
:104F600028272625242322212019180041444320E4
:104F700056616C75652031004144432056616C7563
:104F80006520320048616F204C454420434841521F
:104F900000000000496E64696361746561626C655C
:104FA000000000004C45442053746174650000000B
:104FB000427574746F6E2053746174650000000054
:104FC0004C6F6E672056616C75650000436F6E74A0
:104FD000726F6C20506F696E7400000008530020DF
:104FE000008000203C0100002849002008530020D8
:104FF00020900020C8010000284900206807080010
:10500000202A0800E005000028490020800C00004C
:105010002F2A93A6BDD84152AC0B10992EC6FEED97
:1050200020EE8D0CE1F04A0CB325DC536A68862D26
:105030004F43313C939242E6A876FA3BEFB4875A4D
:1050400017B967984C664C01963331B191590015E8
:105050002368EC521E6244749A1BD18BAB75B66EFA
:105060009EE7BA08B9A948ABA1AC031C2E0D296C68
:1050700028D5E1C1E1C54729B55765C3BA47159E93
:105080008C09E0D1815442408E4FD2B377E32A7726
:1050900033323130292827262524232221201918AC
:1050A00008000020EE8D0CE1F04A0CB325DC536AB9
:1050B00068862D0400004F43313C939242E6A87667
:1050C000FA3BEFB4875A12000017B967984C664C48
:1050D00001963331B1915900150200002368EC525A
:1050E0001E6244749A1BD18BAB75B66E1200009E83
:1050F000E7BA08B9A948ABA1AC031C2E0D296C2254
:10510000000028D5E1C1E1C54729B55765C3BA47B5
:10511000159E1A00008C09E0D1815442408E4FD276
:10512000B377E32A77000028032802290129000029
:105130002651002002000100100010001050002035
:10514000285100200200010013001300A05000208D
:1051500020500020100008000100000000000000A6
:105160002C510020020001000D000D00CC4F00204A
:10517000285100200200010013001300B35000204A
:105180003050002010000800010000000000000066
:105190002C5100200200010009000900A44F00204A
:1051A000285100200200010013001300C650002007
:1051B000405000201000010202000000000000002A
:1051C0002A51002002000900020000000000000037
:1051D0002C510020020001000B000B006C4F00203E
:1051E000285100200200010013001300D9500020B4
:1051F00050500020100001000200000000000000DC
:105200002C510020020001000B000B00784F002001
:10521000285100200200010013001300EC50002070
:10522000605000201000010201000000000000009A
:105230002A510020020009000200000000000000C6
:105240002C510020020001000C000C00B04F002087
:10525000285100200200010013001300FF5000201D
:1052600070500020100041001400000000000000F9
:105270002A51002002000900020000000000000086
:105280002C510020020001000C000C00944F002063
:1052900028510020020001001300130012510020C9
:1052A00080500020100009023200000000000000C1
:1052B0002A51002002000900020000000000000046
:1052C0002C510020020001000A000A00C04F0020FB
:1052D000285100200200010013001300584F002045
:1052E00090500020100008000100000000000000A5
:1052F0002C510020020001000C000C00844F002003
:085300000000000000000000A5
:040000052000044192
:00000001FF
